{
  "abi": [
    {
      "inputs": [],
      "name": "IdenticalAddresses",
      "type": "error"
    },
    {
      "inputs": [],
      "name": "PairExists",
      "type": "error"
    },
    {
      "inputs": [],
      "name": "ZeroAddress",
      "type": "error"
    },
    {
      "anonymous": false,
      "inputs": [
        {
          "indexed": true,
          "internalType": "address",
          "name": "token0",
          "type": "address"
        },
        {
          "indexed": true,
          "internalType": "address",
          "name": "token1",
          "type": "address"
        },
        {
          "indexed": false,
          "internalType": "address",
          "name": "pair",
          "type": "address"
        },
        {
          "indexed": false,
          "internalType": "uint256",
          "name": "",
          "type": "uint256"
        }
      ],
      "name": "PairCreated",
      "type": "event"
    },
    {
      "inputs": [
        {
          "internalType": "uint256",
          "name": "",
          "type": "uint256"
        }
      ],
      "name": "allPairs",
      "outputs": [
        {
          "internalType": "address",
          "name": "",
          "type": "address"
        }
      ],
      "stateMutability": "view",
      "type": "function"
    },
    {
      "inputs": [
        {
          "internalType": "address",
          "name": "tokenA",
          "type": "address"
        },
        {
          "internalType": "address",
          "name": "tokenB",
          "type": "address"
        }
      ],
      "name": "createPair",
      "outputs": [
        {
          "internalType": "address",
          "name": "pair",
          "type": "address"
        }
      ],
      "stateMutability": "nonpayable",
      "type": "function"
    },
    {
      "inputs": [
        {
          "internalType": "address",
          "name": "",
          "type": "address"
        },
        {
          "internalType": "address",
          "name": "",
          "type": "address"
        }
      ],
      "name": "pairs",
      "outputs": [
        {
          "internalType": "address",
          "name": "",
          "type": "address"
        }
      ],
      "stateMutability": "view",
      "type": "function"
    }
  ],
  "bytecode": {
    "object": "0x608060405234801561001057600080fd5b50612433806100206000396000f3fe608060405234801561001057600080fd5b50600436106100415760003560e01c80631e3dd18b1461004657806369454b8614610075578063c9c65396146100a6575b600080fd5b610059610054366004610368565b6100b9565b6040516001600160a01b03909116815260200160405180910390f35b61005961008336600461039d565b60006020818152928152604080822090935290815220546001600160a01b031681565b6100596100b436600461039d565b6100e3565b600181815481106100c957600080fd5b6000918252602090912001546001600160a01b0316905081565b6000816001600160a01b0316836001600160a01b03160361011757604051630bd969eb60e41b815260040160405180910390fd5b600080836001600160a01b0316856001600160a01b03161061013a57838561013d565b84845b90925090506001600160a01b0382166101695760405163d92e233d60e01b815260040160405180910390fd5b6001600160a01b03828116600090815260208181526040808320858516845290915290205416156101ad57604051633d77e89160e01b815260040160405180910390fd5b6000604051806020016101bf9061035b565b601f1982820381018352601f9091011660408190526bffffffffffffffffffffffff19606086811b8216602084015285901b166034820152909150600090604801604051602081830303815290604052805190602001209050808251602084016000f560405163485cc95560e01b81526001600160a01b03868116600483015285811660248301529196509086169063485cc95590604401600060405180830381600087803b15801561027157600080fd5b505af1158015610285573d6000803e3d6000fd5b505050506001600160a01b0384811660008181526020818152604080832088861680855290835281842080546001600160a01b0319908116978d1697881790915584845282852086865284528285208054821688179055600180548082018255958190527fb10e2d527612073b26eecdfd717e6a320cf44b4afac2b0732d9fcbe2b7fa0cf6909501805490911687179055925481519586529185019190915290927f0d3648bd0f6ba80134a33ba9275ac585d9d315f0ad8355cddefde31afa28d0e9910160405180910390a35050505092915050565b61202d806103d183390190565b60006020828403121561037a57600080fd5b5035919050565b80356001600160a01b038116811461039857600080fd5b919050565b600080604083850312156103b057600080fd5b6103b983610381565b91506103c760208401610381565b9050925092905056fe60e06040523480156200001157600080fd5b506040518060400160405280600c81526020016b29b430b330b3b4102830b4b960a11b8152506040518060400160405280600481526020016329a4219960e11b81525060128260009081620000679190620001ef565b506001620000768382620001ef565b5060ff81166080524660a0526200008c62000099565b60c0525062000339915050565b60007f8b73c3c69bb8fe3d512ecc4cf759cc79239f7b179b0ffacaa9a75d522b39400f6000604051620000cd9190620002bb565b60408051918290038220828201825260018352603160f81b6020938401528151928301939093528101919091527fc89efdaa54c0f20c7adf612882df0950f5a951637e0307cdcb4c672f298b8bc660608201524660808201523060a082015260c00160405160208183030381529060405280519060200120905090565b634e487b7160e01b600052604160045260246000fd5b600181811c908216806200017557607f821691505b6020821081036200019657634e487b7160e01b600052602260045260246000fd5b50919050565b601f821115620001ea57600081815260208120601f850160051c81016020861015620001c55750805b601f850160051c820191505b81811015620001e657828155600101620001d1565b5050505b505050565b81516001600160401b038111156200020b576200020b6200014a565b62000223816200021c845462000160565b846200019c565b602080601f8311600181146200025b5760008415620002425750858301515b600019600386901b1c1916600185901b178555620001e6565b600085815260208120601f198616915b828110156200028c578886015182559484019460019091019084016200026b565b5085821015620002ab5787850151600019600388901b60f8161c191681555b5050505050600190811b01905550565b6000808354620002cb8162000160565b60018281168015620002e65760018114620002fc576200032d565b60ff19841687528215158302870194506200032d565b8760005260208060002060005b85811015620003245781548a82015290840190820162000309565b50505082870194505b50929695505050505050565b60805160a05160c051611cc46200036960003960006109dd015260006109a80152600061025d0152611cc46000f3fe608060405234801561001057600080fd5b506004361061014d5760003560e01c80635909c0d5116100c357806395d89b411161007c57806395d89b4114610339578063a9059cbb14610341578063d21220a714610354578063d505accf14610367578063dd62ed3e1461037a578063fff6cae9146103a557600080fd5b80635909c0d5146102ac5780635a3d5493146102b55780636a627842146102be57806370a08231146102d15780637ecebe00146102f157806389afcb441461031157600080fd5b806318160ddd1161011557806318160ddd1461020757806323b872dd1461021e57806330adf81f14610231578063313ce567146102585780633644e51514610291578063485cc9551461029957600080fd5b8063022c0d9f1461015257806306fdde03146101675780630902f1ac14610185578063095ea7b3146101b95780630dfe1681146101dc575b600080fd5b6101656101603660046117f7565b6103ad565b005b61016f610798565b60405161017c91906118bb565b60405180910390f35b61018d610826565b604080516001600160701b03948516815293909216602084015263ffffffff169082015260600161017c565b6101cc6101c73660046118ee565b610850565b604051901515815260200161017c565b6006546101ef906001600160a01b031681565b6040516001600160a01b03909116815260200161017c565b61021060025481565b60405190815260200161017c565b6101cc61022c366004611918565b6108bc565b6102107f6e71edae12b1b97f4d1f60370fef10105fa2faae0126114a169c64845d6126c981565b61027f7f000000000000000000000000000000000000000000000000000000000000000081565b60405160ff909116815260200161017c565b6102106109a4565b6101656102a7366004611954565b6109ff565b61021060095481565b610210600a5481565b6102106102cc366004611987565b610a6d565b6102106102df366004611987565b60036020526000908152604090205481565b6102106102ff366004611987565b60056020526000908152604090205481565b61032461031f366004611987565b610ca4565b6040805192835260208301919091520161017c565b61016f610f7b565b6101cc61034f3660046118ee565b610f88565b6007546101ef906001600160a01b031681565b6101656103753660046119a2565b610fee565b610210610388366004611954565b600460209081526000928352604080842090915290825290205481565b610165611253565b600b5460ff16156103bd57600080fd5b600b805460ff19166001179055841580156103d6575083155b156103f4576040516342301c2360e01b815260040160405180910390fd5b6000806103ff610826565b5091509150816001600160701b03168711806104235750806001600160701b031686115b156104415760405163bb55fd2760e01b815260040160405180910390fd5b861561045e5760065461045e906001600160a01b0316868961134c565b851561047b5760075461047b906001600160a01b0316868861134c565b82156104e857604051630c68e5d560e41b81526001600160a01b0386169063c68e5d50906104b59033908b908b908a908a90600401611a15565b600060405180830381600087803b1580156104cf57600080fd5b505af11580156104e3573d6000803e3d6000fd5b505050505b6006546040516370a0823160e01b81523060048201526000916001600160a01b0316906370a0823190602401602060405180830381865afa158015610531573d6000803e3d6000fd5b505050506040513d601f19601f820116820180604052508101906105559190611a61565b6007546040516370a0823160e01b81523060048201529192506000916001600160a01b03909116906370a0823190602401602060405180830381865afa1580156105a3573d6000803e3d6000fd5b505050506040513d601f19601f820116820180604052508101906105c79190611a61565b6008549091506000906105e4908b906001600160701b0316611a90565b83116105f1576000610612565b600854610608908b906001600160701b0316611a90565b6106129084611a90565b600854909150600090610636908b90600160701b90046001600160701b0316611a90565b831161064357600061066b565b600854610661908b90600160701b90046001600160701b0316611a90565b61066b9084611a90565b905081158015610679575080155b156106975760405163098fb56160e01b815260040160405180910390fd5b60006106a4836003611aa7565b6106b0866103e8611aa7565b6106ba9190611a90565b905060006106c9836003611aa7565b6106d5866103e8611aa7565b6106df9190611a90565b90506106f76001600160701b03808916908a16611aa7565b61070490620f4240611aa7565b61070e8284611aa7565b101561072d57604051632f62f0d960e21b815260040160405180910390fd5b61073986868a8a61143b565b604080518e8152602081018e90526001600160a01b038d169133917f2a9237ff5aa599ef4c5ee4b1142b53429d5755e2685fe6288b2e3320202115f5910160405180910390a35050600b805460ff191690555050505050505050505050565b600080546107a590611ac6565b80601f01602080910402602001604051908101604052809291908181526020018280546107d190611ac6565b801561081e5780601f106107f35761010080835404028352916020019161081e565b820191906000526020600020905b81548152906001019060200180831161080157829003601f168201915b505050505081565b6008546001600160701b0380821692600160701b830490911691600160e01b900463ffffffff1690565b3360008181526004602090815260408083206001600160a01b038716808552925280832085905551919290917f8c5be1e5ebec7d5bd14f71427d1e84f3dd0314c0f7b2291e5b200ac8c7c3b925906108ab9086815260200190565b60405180910390a350600192915050565b6001600160a01b038316600090815260046020908152604080832033845290915281205460001914610921576001600160a01b03841660009081526004602090815260408083203384529091528120805484929061091b908490611a90565b90915550505b6001600160a01b03841660009081526003602052604081208054849290610949908490611a90565b90915550506001600160a01b0380841660008181526003602052604090819020805486019055519091861690600080516020611c6f833981519152906109929086815260200190565b60405180910390a35060019392505050565b60007f000000000000000000000000000000000000000000000000000000000000000046146109da576109d56115b9565b905090565b507f000000000000000000000000000000000000000000000000000000000000000090565b6006546001600160a01b0316151580610a2257506007546001600160a01b031615155b15610a3f5760405162dc149f60e41b815260040160405180910390fd5b600680546001600160a01b039384166001600160a01b03199182161790915560078054929093169116179055565b6000806000610a7a610826565b506006546040516370a0823160e01b81523060048201529294509092506000916001600160a01b03909116906370a0823190602401602060405180830381865afa158015610acc573d6000803e3d6000fd5b505050506040513d601f19601f82011682018060405250810190610af09190611a61565b6007546040516370a0823160e01b81523060048201529192506000916001600160a01b03909116906370a0823190602401602060405180830381865afa158015610b3e573d6000803e3d6000fd5b505050506040513d601f19601f82011682018060405250810190610b629190611a61565b90506000610b796001600160701b03861684611a90565b90506000610b906001600160701b03861684611a90565b9050600254600003610bcf576103e8610bb1610bac8385611aa7565b611668565b610bbb9190611a90565b9650610bca60006103e86116d8565b610c1e565b610c1b866001600160701b031660025484610bea9190611aa7565b610bf49190611b10565b866001600160701b031660025484610c0c9190611aa7565b610c169190611b10565b611732565b96505b60008711610c3f57604051633489be7560e21b815260040160405180910390fd5b610c4988886116d8565b610c558484888861143b565b60408051838152602081018390526001600160a01b038a16917f4c209b5fc8ad50758f13e2e1088ba56a560dff690a1c6fef26394f4c03821c4f910160405180910390a2505050505050919050565b6006546040516370a0823160e01b8152306004820152600091829182916001600160a01b0316906370a0823190602401602060405180830381865afa158015610cf1573d6000803e3d6000fd5b505050506040513d601f19601f82011682018060405250810190610d159190611a61565b6007546040516370a0823160e01b81523060048201529192506000916001600160a01b03909116906370a0823190602401602060405180830381865afa158015610d63573d6000803e3d6000fd5b505050506040513d601f19601f82011682018060405250810190610d879190611a61565b3060009081526003602052604090205460025491925090610da88483611aa7565b610db29190611b10565b600254909550610dc28383611aa7565b610dcc9190611b10565b9350841580610dd9575083155b15610df75760405163749383ad60e01b815260040160405180910390fd5b610e01308261174a565b600654610e18906001600160a01b0316878761134c565b600754610e2f906001600160a01b0316878661134c565b6006546040516370a0823160e01b81523060048201526001600160a01b03909116906370a0823190602401602060405180830381865afa158015610e77573d6000803e3d6000fd5b505050506040513d601f19601f82011682018060405250810190610e9b9190611a61565b6007546040516370a0823160e01b81523060048201529194506001600160a01b0316906370a0823190602401602060405180830381865afa158015610ee4573d6000803e3d6000fd5b505050506040513d601f19601f82011682018060405250810190610f089190611a61565b9150600080610f15610826565b5091509150610f268585848461143b565b60408051888152602081018890526001600160a01b038a1681830152905133917fdccd412f0b1252819cb1fd330b93224ca42612892bb3f4f789976e6d81936496919081900360600190a25050505050915091565b600180546107a590611ac6565b33600090815260036020526040812080548391908390610fa9908490611a90565b90915550506001600160a01b03831660008181526003602052604090819020805485019055513390600080516020611c6f833981519152906108ab9086815260200190565b428410156110435760405162461bcd60e51b815260206004820152601760248201527f5045524d49545f444541444c494e455f4558504952454400000000000000000060448201526064015b60405180910390fd5b600061104d6109a4565b6001600160a01b0389811660008181526005602090815260409182902080546001810190915582517f6e71edae12b1b97f4d1f60370fef10105fa2faae0126114a169c64845d6126c98184015280840194909452938c166060840152608083018b905260a083019390935260c08083018a90528151808403909101815260e08301909152805192019190912061190160f01b6101008301526101028201929092526101228101919091526101420160408051601f198184030181528282528051602091820120600080855291840180845281905260ff88169284019290925260608301869052608083018590529092509060019060a0016020604051602081039080840390855afa158015611166573d6000803e3d6000fd5b5050604051601f1901519150506001600160a01b0381161580159061119c5750886001600160a01b0316816001600160a01b0316145b6111e85760405162461bcd60e51b815260206004820152601860248201527f494e56414c49445f5045524d49545f5349474e41545552450000000000000000604482015260640161103a565b6001600160a01b0390811660009081526004602090815260408083208b8516808552908352928190208a905551898152919350918a16917f8c5be1e5ebec7d5bd14f71427d1e84f3dd0314c0f7b2291e5b200ac8c7c3b925910160405180910390a350505050505050565b60008061125e610826565b506006546040516370a0823160e01b8152306004820152929450909250611348916001600160a01b03909116906370a0823190602401602060405180830381865afa1580156112b1573d6000803e3d6000fd5b505050506040513d601f19601f820116820180604052508101906112d59190611a61565b6007546040516370a0823160e01b81523060048201526001600160a01b03909116906370a0823190602401602060405180830381865afa15801561131d573d6000803e3d6000fd5b505050506040513d601f19601f820116820180604052508101906113419190611a61565b848461143b565b5050565b6040516001600160a01b03838116602483015260448201839052600091829186169060640160408051601f198184030181529181526020820180516001600160e01b031663a9059cbb60e01b179052516113a69190611b24565b6000604051808303816000865af19150503d80600081146113e3576040519150601f19603f3d011682016040523d82523d6000602084013e6113e8565b606091505b509150915081158061141657508051158015906114165750808060200190518101906114149190611b40565b155b15611434576040516312171d8360e31b815260040160405180910390fd5b5050505050565b6001600160701b0384118061145657506001600160701b0383115b15611474576040516389560ca160e01b815260040160405180910390fd5b60085463ffffffff600160e01b90910481164203908116158015906114a257506000836001600160701b0316115b80156114b757506000826001600160701b0316115b15611522578063ffffffff166114df846114d0856117ac565b6001600160e01b0316906117cb565b600980546001600160e01b03929092169290920201905563ffffffff811661150a836114d0866117ac565b600a80546001600160e01b0392909216929092020190555b506008805463ffffffff4216600160e01b026001600160e01b036001600160701b03878116600160701b9081026001600160e01b03199095168a83161794909417918216831794859055604080519382169282169290921783529290930490911660208201527fcf2aa50876cdfbb541206f89af0ee78d44a2abf8d328e37fa4917f982149848a910160405180910390a150505050565b60007f8b73c3c69bb8fe3d512ecc4cf759cc79239f7b179b0ffacaa9a75d522b39400f60006040516115eb9190611b62565b60408051918290038220828201825260018352603160f81b6020938401528151928301939093528101919091527fc89efdaa54c0f20c7adf612882df0950f5a951637e0307cdcb4c672f298b8bc660608201524660808201523060a082015260c00160405160208183030381529060405280519060200120905090565b600060038211156116c95750806000611682600283611b10565b61168d906001611c01565b90505b818110156116c3579050806002816116a88186611b10565b6116b29190611c01565b6116bc9190611b10565b9050611690565b50919050565b81156116d3575060015b919050565b80600260008282546116ea9190611c01565b90915550506001600160a01b038216600081815260036020908152604080832080548601905551848152600080516020611c6f83398151915291015b60405180910390a35050565b60008183106117415781611743565b825b9392505050565b6001600160a01b03821660009081526003602052604081208054839290611772908490611a90565b90915550506002805482900390556040518181526000906001600160a01b03841690600080516020611c6f83398151915290602001611726565b60006117c5600160701b6001600160701b038416611c19565b92915050565b60006117436001600160701b03831684611c48565b80356001600160a01b03811681146116d357600080fd5b60008060008060006080868803121561180f57600080fd5b8535945060208601359350611826604087016117e0565b9250606086013567ffffffffffffffff8082111561184357600080fd5b818801915088601f83011261185757600080fd5b81358181111561186657600080fd5b89602082850101111561187857600080fd5b9699959850939650602001949392505050565b60005b838110156118a657818101518382015260200161188e565b838111156118b5576000848401525b50505050565b60208152600082518060208401526118da81604085016020870161188b565b601f01601f19169190910160400192915050565b6000806040838503121561190157600080fd5b61190a836117e0565b946020939093013593505050565b60008060006060848603121561192d57600080fd5b611936846117e0565b9250611944602085016117e0565b9150604084013590509250925092565b6000806040838503121561196757600080fd5b611970836117e0565b915061197e602084016117e0565b90509250929050565b60006020828403121561199957600080fd5b611743826117e0565b600080600080600080600060e0888a0312156119bd57600080fd5b6119c6886117e0565b96506119d4602089016117e0565b95506040880135945060608801359350608088013560ff811681146119f857600080fd5b9699959850939692959460a0840135945060c09093013592915050565b60018060a01b038616815284602082015283604082015260806060820152816080820152818360a0830137600081830160a090810191909152601f909201601f19160101949350505050565b600060208284031215611a7357600080fd5b5051919050565b634e487b7160e01b600052601160045260246000fd5b600082821015611aa257611aa2611a7a565b500390565b6000816000190483118215151615611ac157611ac1611a7a565b500290565b600181811c90821680611ada57607f821691505b6020821081036116c357634e487b7160e01b600052602260045260246000fd5b634e487b7160e01b600052601260045260246000fd5b600082611b1f57611b1f611afa565b500490565b60008251611b3681846020870161188b565b9190910192915050565b600060208284031215611b5257600080fd5b8151801515811461174357600080fd5b600080835481600182811c915080831680611b7e57607f831692505b60208084108203611b9d57634e487b7160e01b86526022600452602486fd5b818015611bb15760018114611bc657611bf3565b60ff1986168952841515850289019650611bf3565b60008a81526020902060005b86811015611beb5781548b820152908501908301611bd2565b505084890196505b509498975050505050505050565b60008219821115611c1457611c14611a7a565b500190565b60006001600160e01b0382811684821681151582840482111615611c3f57611c3f611a7a565b02949350505050565b60006001600160e01b0383811680611c6257611c62611afa565b9216919091049291505056feddf252ad1be2c89b69c2b068fc378daa952ba7f163c4a11628f55a4df523b3efa26469706673582212204df6eefe2aca0d85ecff79d5dd1b3be98abaa242e1022de736c2a8e14c0642c464736f6c634300080f0033a2646970667358221220490850289b58cf190013874c442504a0747b20bed5297ef49d59c5e97e78e8fc64736f6c634300080f0033",
    "linkReferences": {}
  },
  "methodIdentifiers": {
    "allPairs(uint256)": "1e3dd18b",
    "createPair(address,address)": "c9c65396",
    "pairs(address,address)": "69454b86"
  },
  "id": 13
}